:020000040000FA
:10000000FE0E2500000C020070000F0C06006607B3
:100010000B0A03000000B002070C90014307120A0C
:10002000010C300066070B0AFF0C3100200C320077
:1000300066070B0AF202180AF102160A1F0A040CDC
:1000400026000A0C060049093E09010C26000A0C8C
:10005000060049093E09040C2600090C060049095E
:100060003E09030C2600080C060049093E09010C54
:1000700026000A0C060049093E09520A0F0C060028
:10008000FF0C31004F0C3200F102440AF202440A24
:100090000008FF0C3100170C3200F1024D0AF20289
:1000A0004D0A0008FF0C31000F0C32000F0C060047
:1000B00074091002790926001002810906006F09EF
:1000C0000F0C06007409100289092600100291091C
:1000D00006006F09F102560AF202560A050A200CC0
:1000E0003300F302710A0008200C3400F402760A8F
:1000F0000008E201000800080108010801080108E1
:100100000308E2010F080F08080808080808080893
:100110000808E201000804080408040804080408A8
:100120000408E2010F0809080F0809080A0808086E
:020130000A08BB
:080200000600020008000200E4
:021FFE00EB0FE7
:00000001FF
